:100000000C943E000C945B000C945B000C945B0021
:100010000C945B000C945B000C945B000C945B00F4
:100020000C945B000C945B000C945B000C945B00E4
:100030000C945B000C945B000C945B000C945B00D4
:100040000C945B000C945B000C945B000C945B00C4
:100050000C945B000C945B000C945B000C945B00B4
:100060000C945B000C945B000C945B000C945B00A4
:100070000C945B000C945B000C945B0011241FBE7D
:10008000CFEFD8E0DEBFCDBF11E0A0E0B1E0E0EB04
:10009000F3E002C005900D92A034B107D9F711E04A
:1000A000A0E4B1E001C01D92A034B107E1F70E94C5
:1000B000D2010C94D6010C9400008FEF81B984B961
:1000C000299A2B980895289A289808952A9A2A9868
:1000D00008950E94660008952998299A08950E941B
:1000E0006C000E94690008952B9808952B9A08953A
:1000F00082B90E9463000895EF92FF920F931F93BD
:10010000CF93DF93CDB7DEB728970FB6F894DEBF55
:100110000FBECDBF29833A834B835C836D837E837F
:100120008F8398878E010F5F1F4FEE24FF24689402
:10013000E3F8EC0EFD1EF80181918F010E9478001A
:100140000E151F05C1F728960FB6F894DEBF0FBE37
:10015000CDBFDF91CF911F910F91FF90EF90089548
:10016000EF92FF920F931F93CF93DF93CDB7DEB73C
:1001700028970FB6F894DEBF0FBECDBF29833A8310
:100180004B835C836D837E838F8398878E010F5FA3
:100190001F4F0F2EF9E0EF2EFF24F02DEC0EFD1E69
:1001A000F80181918F010E9478000E151F05C1F79B
:1001B00028960FB6F894DEBF0FBECDBFDF91CF916A
:1001C0001F910F91FF90EF900895AF92BF92DF9231
:1001D000EF92FF920F931F93CF93DF93CDB7DEB7CC
:1001E00068970FB6F894DEBF0FBECDBF298B3A8B50
:1001F0004B8B5C8B6D8B7E8B8F8B988F0F2EF9E0EA
:10020000EF2EFF24F02DEC0EFD1E00E010E0A1E02B
:10021000B0E0AA24BB24DD241BC0819190E086239A
:100220009723009741F0CD01022E02C0880F991F3D
:100230000A94E2F7482B2F5F3F4F2830310569F7CA
:10024000F70141937F010F5F1F4F0830110561F0E7
:10025000BD01002E02C0660F771F0A94E2F7FE016F
:10026000719695014D2DD9CFDE011196FE0139967B
:1002700088E001900D928150E1F729813A814B810C
:100280005C816D817E818F81988568960FB6F89428
:10029000DEBF0FBECDBFDF91CF911F910F91FF90B9
:1002A000EF90DF90BF90AF900895CF93DF93CDB7DD
:1002B000DEB7C055D0400FB6F894DEBF0FBECDBF3D
:1002C000DE011996E0E0F1E080E401900D928150AA
:1002D000E1F700E010E04E010894811C911C0F2E04
:1002E000F9E46F2E7724F02D6C0E7D1EF82CE92C8E
:1002F000D62CC72CBB246894B3F844245524D801C9
:10030000AA0FBB1FAA0FBB1FAA0FBB1FA80DB91DA9
:10031000FD01389618962C91318142815381648178
:100320007581868197810E94E500D3012C932B96DD
:100330003FAF2B972C964FAF2C972D965FAF2D97F5
:100340002E966FAF2E972F967FAF2F9760968FAF19
:10035000609761969FAF6197EF2DFE2DAD2DBC2D5F
:100360008B2D0D9001928150E1F729813A814B81CB
:100370005C816D817E818F8198850E947C000E94C6
:1003800069008FE392E4AFE081509040A040E1F734
:1003900000C000000F5F1F4F083011050CF4AFCFF5
:1003A0008201ADCF0E945D000E945501F894FFCFFD
:1003B0007F007F007F007F01007F007F007F0002C1
:1003C0007F007F007F007F04007F007F007F0008A8
:1003D0007F007F007F007F10007F007F007F002074
:1003E0007F007F007F007F40007F007F007F0080D4
:00000001FF
